:020000040800F2
:100000000028002079090008950800089D080008CC
:10001000A5080008AD080008B508000800000000A9
:10002000000000000000000000000000BD08000803
:10003000C908000800000000D5080008E108000811
:10004000C1090008C1090008C1090008C109000868
:10005000C1090008C1090008C1090008C109000858
:10006000C1090008C1090008C1090008C109000848
:10007000C1090008C1090008C1090008C109000838
:10008000C1090008C1090008C1090008C109000828
:10009000C1090008C1090008C1090008C109000818
:1000A000C1090008C1090008C1090008C109000808
:1000B000ED080008C109000800000000C10900089F
:1000C000C10900080000000000000000C10900088C
:1000D00000000000C1090008C1090008000000007C
:1000E000C1090008C1090008C1090008000000009A
:1000F0000000000000000000000000000000000000
:0C01000000000000000000005FF808F1A3
:10010C0010B5054C237833B9044B13B10448AFF345
:10011C0000800123237010BD5C0000200000000053
:10012C001C22000808B5034B1BB103490348AFF36D
:10013C00008008BD00000000600000201C220008A8
:10014C0080B584B000AF0346FB71082001F016FFA8
:10015C000346BB60BB68002B01D1002317E00023D2
:10016C00FB6010E0FA79FB68C3F1070342FA03F372
:10017C00DAB2FB68B9680B4402F00102D2B21A7011
:10018C00FB680133FB60FB68072BEBDDBB68184693
:10019C001037BD4680BD000080B500AF00224FF483
:1001AC008071174800F018FF00224FF400711448BA
:1001BC0000F012FF00224FF48061114800F00CFF98
:1001CC0000224FF400610E4800F006FF00224FF4AD
:1001DC0080510B4800F000FF00224FF400510848FA
:1001EC0000F0FAFE00224FF48041054800F0F4FEC6
:1001FC0000224FF40041024800F0EEFE00BF80BD2B
:10020C00000C014080B584B000AF78600023FB6027
:10021C0057E0FB687A6813441B78012B4ED1FB68BE
:10022C00072B4BD801A252F823F000BF590200084B
:10023C00670200087502000883020008910200089A
:10024C009F020008AD020008BB02000801224FF417
:10025C008071204800F0C0FE30E001224FF40071A4
:10026C001C4800F0B9FE29E001224FF480611948C6
:10027C0000F0B2FE22E001224FF40061154800F0BC
:10028C00ABFE1BE001224FF48051124800F0A4FE9B
:10029C0014E001224FF400510E4800F09DFE0DE0D9
:1002AC0001224FF480410B4800F096FE06E001223B
:1002BC004FF40041074800F08FFE00BFFB6801338C
:1002CC00FB60FB68072BA4DD00BF00BF1037BD46E9
:1002DC0080BD00BF000C014080B500AF002204219E
:1002EC00164800F079FE00220821144800F074FE34
:1002FC0000224FF48061114800F06EFE00224FF492
:10030C0000610E4800F068FE00224FF480510B484B
:10031C0000F062FE00224FF40051084800F05CFE31
:10032C0000224FF48041054800F056FE00224FF4A5
:10033C000041024800F050FE00BF80BD00080140A3
:10034C0080B584B000AF78600023FB6055E0FB689B
:10035C007A6813441B78002B4CD1FB68072B49D8C7
:10036C0001A252F823F000BF95030008A103000876
:10037C00AD030008BB030008C9030008D70300083D
:10038C00E5030008F3030008012204211F4800F0D4
:10039C0023FE2FE0012208211C4800F01DFE29E05D
:1003AC0001224FF48061194800F016FE22E0012270
:1003BC004FF40061154800F00FFE1BE001224FF4D2
:1003CC008051124800F008FE14E001224FF4005155
:1003DC000E4800F001FE0DE001224FF480410B4865
:1003EC0000F0FAFD06E001224FF40041074800F04E
:1003FC00F3FD00BFFB680133FB60FB68072BA6DD38
:10040C0000BF00BF1037BD4680BD00BF00080140D3
:10041C0080B586B000AFF860B9607A60FB687A6826
:10042C0013441B781846FFF78BFE7861FB68BA689B
:10043C0013441B781846FFF783FE38617B69002B49
:10044C000FD03B69002B0CD07869FFF7DBFE3869C5
:10045C00FFF776FF786901F099FD386901F096FD98
:10046C0000E000BF1837BD4680BD000080B58EB0DF
:10047C0000AF07F14003BB6200F09EFA00F070F889
:10048C0000F0F6F800F0A8F8314801F0EBF9002381
:10049C003B630F237B6208233B613223FB627B6A45
:1004AC002C4A82FB03129210DB17D31A7B61796AF8
:1004BC00284B83FB01239A10CB17D21A13469B00AF
:1004CC0013445B00CA1ABA613B69224A82FB0312CD
:1004DC009210DB17D31AFB6139691E4B83FB012386
:1004EC009A10CB17D21A13469B0013445B00CA1AFE
:1004FC003A62194A07F1080392E8030083E8030003
:10050C00164A3B4692E8030083E8030000214FF4AF
:10051C007A7000F013F901214FF47A6000F00EF9B3
:10052C0000237B6310E03A4607F108031946786B09
:10053C00FFF76EFF0A2000F0A1FAFFF72DFEFFF780
:10054C00CBFE7B6B01337B637B6B072BEBDDE7E730
:10055C007800002067666666342200083C2200089A
:10056C0080B590B000AF07F118032822002118467F
:10057C0001F0C2FD3B1D00221A605A609A60DA60DD
:10058C001A610223BB610123BB621023FB620023AF
:10059C007B6307F11803184600F036FD0346002B69
:1005AC0001D000F0C5F80F237B600023BB60002353
:1005BC00FB6000233B6100237B613B1D002118463F
:1005CC0000F0A4FF0346002B01D000F0B1F800BFEF
:1005DC004037BD4680BD000080B586B000AF07F146
:1005EC00080300221A605A609A60DA603B460022C7
:1005FC001A605A601D4B4FF080421A601B4B41F63B
:10060C003F725A60194B00229A60184B0922DA602B
:10061C00164B00221A61154B00229A61134801F007
:10062C00D1F80346002B01D000F082F84FF4805330
:10063C00BB6007F1080319460C4801F04FFA03465A
:10064C00002B01D000F074F800233B6000237B608A
:10065C003B461946054801F027FC0346002B01D008
:10066C0000F066F800BF1837BD4680BD780000204A
:10067C0080B586B000AF07F1080300221A605A60FB
:10068C009A60DA60224B9B69214A43F00403936120
:10069C001F4B9B6903F004037B607B681C4B9B69BD
:1006AC001B4A43F008039361194B9B6903F0080341
:1006BC003B603B6800224FF6FC71164800F08CFC46
:1006CC0000224FF67F71144800F086FC4FF6FC7345
:1006DC00BB600123FB6000233B6102237B6107F1BC
:1006EC00080319460B4800F0FBFA4FF67F73BB600A
:1006FC000123FB6000233B6102237B6107F10803AC
:10070C001946054800F0ECFA00BF1837BD4680BD0D
:10071C000010024000080140000C014080B582B07E
:10072C0000AF786000F02AF800BF0837BD4680BDE6
:10073C0080B400AF72B600BF00BFFDE780B483B0D9
:10074C0000AF786039607B68094A82FB0312921013
:10075C00DB17D21A07493B6841F82320064A3B684D
:10076C00002142F8231000BF0C37BD4680BC7047F7
:10077C0067666666C0000020E800002080B483B085
:10078C0000AF00237B601CE0124A7B6852F82330D8
:10079C00002B13DD0F4A7B6852F823305A1E0D498B
:1007AC007B6841F823200B4A7B6852F82330002BDE
:1007BC0004D1094A7B68012142F823107B6801337C
:1007CC007B607B68092BDFDD00BF00BF0C37BD46AB
:1007DC0080BC7047C0000020E800002080B485B0C9
:1007EC0000AF154B9B69144A43F001039361124B04
:1007FC009B6903F00103BB60BB680F4BDB690E4ABE
:10080C0043F08053D3610C4BDB6903F080537B6066
:10081C007B680A4B5B68FB60FB6823F0E063FB6062
:10082C00FB6843F08063FB60044AFB68536000BFC5
:10083C001437BD4680BC70470010024000000140D8
:10084C0080B584B000AF78607B681B68B3F1804FD3
:10085C0013D10C4BDB690B4A43F00103D361094BF9
:10086C00DB6903F00103FB60FB68002200211C2004
:10087C0000F0FFF91C2000F018FA00BF1037BD463D
:10088C0080BD00BF0010024080B400AF00BFFDE788
:10089C0080B400AF00BFFDE780B400AF00BFFDE740
:1008AC0080B400AF00BFFDE780B400AF00BFFDE730
:1008BC0080B400AF00BFBD4680BC704780B400AFB1
:1008CC0000BFBD4680BC704780B400AF00BFBD46C2
:1008DC0080BC704780B500AF00F0B4F800BF80BD9D
:1008EC0080B500AF024801F009F800BF80BD00BF21
:1008FC007800002080B586B000AF7860144A154BA4
:10090C00D31A7B617B693B61134B1B68002B02D1B3
:10091C00114B124A1A60104B1A687B6813443A69DF
:10092C009A4207D201F000FC03460C221A604FF0E9
:10093C00FF3309E0084B1B68FB60074B1A687B68A8
:10094C001344054A1360FB6818461837BD4680BD32
:10095C00002800200004000010010020600200208C
:10096C0080B400AF00BFBD4680BC7047FFF7F8FFF6
:10097C000B480C490C4A002302E0D458C4500433F1
:10098C00C4188C42F9D3094A094C002301E01360C6
:10099C000432A242FBD301F0CDFBFFF767FD704799
:1009AC00000000205C000020702200085C00002089
:1009BC0060020020FEE7000080B500AF084B1B680A
:1009CC00074A43F010031360032000F047F90F208F
:1009DC0000F008F8FFF702FF0023184680BD00BFA7
:1009EC000020024080B582B000AF7860124B1A68CC
:1009FC00124B1B7819464FF47A73B3FBF1F3B2FB2D
:100A0C00F3F3184600F05FF90346002B01D00123E5
:100A1C000EE07B680F2B0AD8002279684FF0FF306C
:100A2C0000F027F9064A7B681360002300E00123DD
:100A3C0018460837BD4680BD000000200800002085
:100A4C000400002080B400AF054B1B781A46054B00
:100A5C001B681344034A136000BFBD4680BC70473B
:100A6C00080000201401002080B400AF024B1B686A
:100A7C001846BD4680BC70471401002080B584B078
:100A8C0000AF7860FFF7F0FFB8607B68FB60FB6835
:100A9C00B3F1FF3F05D00A4B1B781A46FB68134491
:100AAC00FB6000BFFFF7E0FF0246BB68D31AFA6891
:100ABC009A42F7D800BF00BF1037BD4680BD00BFBB
:100ACC000800002080B485B000AF78607B6803F02C
:100ADC000703FB600C4BDB68BB60BA684FF6FF0387
:100AEC001340BB60FB681A02BB68134343F0BF633F
:100AFC0043F40033BB60044ABB68D36000BF1437B7
:100B0C00BD4680BC704700BF00ED00E080B400AF74
:100B1C00044BDB681B0A03F007031846BD4680BC78
:100B2C00704700BF00ED00E080B483B000AF034617
:100B3C00FB7197F90730002B0BDBFB7903F01F02DD
:100B4C00064997F907305B09012000FA02F241F8D7
:100B5C00232000BF0C37BD4680BC704700E100E08D
:100B6C0080B483B000AF03463960FB7197F907304E
:100B7C00002B0ADB3B68DAB20C4997F907301201FB
:100B8C00D2B20B4483F800230AE03B68DAB208497E
:100B9C00FB7903F00F03043B1201D2B20B441A761B
:100BAC0000BF0C37BD4680BC704700BF00E100E0C1
:100BBC0000ED00E080B489B000AFF860B9607A60F5
:100BCC00FB6803F00703FB61FB69C3F10703042B0C
:100BDC0028BF0423BB61FB690433062B02D9FB69D4
:100BEC00033B00E000237B614FF0FF32BB6902FA4C
:100BFC0003F3DA43BB681A407B699A404FF0FF312C
:100C0C007B6901FA03F3D9437B680B401343184605
:100C1C002437BD4680BC704780B582B000AF786089
:100C2C007B68013BB3F1807F01D301230FE00A4ABB
:100C3C007B68013B53600F214FF0FF30FFF790FFB3
:100C4C00054B00229A60044B07221A6000231846B9
:100C5C000837BD4680BD00BF10E000E080B582B013
:100C6C0000AF78607868FFF72DFF00BF0837BD46EE
:100C7C0080BD80B586B000AF0346B9607A60FB7367
:100C8C0000237B61FFF742FF78617A68B968786965
:100C9C00FFF790FF024697F90F3011461846FFF701
:100CAC005FFF00BF1837BD4680BD80B582B000AF76
:100CBC000346FB7197F907301846FFF735FF00BF65
:100CCC000837BD4680BD80B582B000AF78607868CB
:100CDC00FFF7A2FF034618460837BD4680BD00004B
:100CEC0080B48BB000AF7860396000237B62002346
:100CFC003B6261E101227B6A02FA03F3FB613B6810
:100D0C001B68FA691340BB61BA69FB699A4240F0EF
:100D1C0050813B685B68974A93425ED0954A9342F8
:100D2C0075D8954A934258D0934A93426FD8934AB8
:100D3C00934252D0914A934269D8914A93424CD0F3
:100D4C008F4A934263D88F4A934246D08D4A93423E
:100D5C005DD8122B2AD8122B59D801A252F823F0A5
:100D6C00E70D0008C10D0008D30D0008150E000892
:100D7C001B0E00081B0E00081B0E00081B0E0008A3
:100D8C001B0E00081B0E00081B0E00081B0E000893
:100D9C001B0E00081B0E00081B0E00081B0E000883
:100DAC001B0E0008C90D0008DD0D0008764A9342A1
:100DBC0013D02CE03B68DB683B6229E03B68DB68C6
:100DCC0004333B6224E03B68DB6808333B621FE082
:100DDC003B68DB680C333B621AE03B689B68002B7A
:100DEC0002D104233B6213E03B689B68012B05D1C5
:100DFC0008233B627B68FA691A6109E008233B62AD
:100E0C007B68FA695A6103E000233B6200E000BF93
:100E1C00BB69FF2B01D87B6801E07B6804337B61E5
:100E2C00BB69FF2B02D87B6A9B0002E07B6A083B04
:100E3C009B003B617B691A680F213B6901FA03F344
:100E4C00DB431A40396A3B6901FA03F31A437B69A5
:100E5C001A603B685B6803F08053002B00F0A9809C
:100E6C004A4B9B69494A43F001039361474B9B6989
:100E7C0003F00103BB60BB68454A7B6A9B080233E5
:100E8C0052F82330FB607B6A03F003039B000F22B4
:100E9C0002FA03F3DB43FA681340FB607B683D4ABC
:100EAC0093420DD07B683C4A934207D07B683B4A07
:100EBC00934201D1022304E0032302E0012300E06A
:100ECC0000237A6A02F0030292009340FA681343FB
:100EDC00FB602F497B6A9B080233FA6841F8232098
:100EEC003B685B6803F48013002B06D02C4B9A688C
:100EFC002B49BB6913438B6006E0294B9A68BB698D
:100F0C00DB43274913408B603B685B6803F4001399
:100F1C00002B06D0224BDA682149BB691343CB6006
:100F2C0006E01F4BDA68BB69DB431D491340CB60FD
:100F3C003B685B6803F40033002B06D0184B5A68EF
:100F4C001749BB6913434B6006E0154B5A68BB69E4
:100F5C00DB43134913404B603B685B6803F48033FD
:100F6C00002B1FD00E4B1A680D49BB6913430B6045
:100F7C001FE000BF000032100000311000002210F2
:100F8C00000021100000121000001110001002408F
:100F9C000000014000080140000C0140001001401D
:100FAC00000401400B4B1A68BB69DB430949134031
:100FBC000B607B6A01337B623B681A687B6A22FA9E
:100FCC0003F3002B7FF496AE00BF00BF2C37BD4659
:100FDC0080BC70470004014080B483B000AF7860DF
:100FEC000B467B8013467B707B78002B03D07A8872
:100FFC007B681A6103E07B881A047B681A6100BF66
:10100C000C37BD4680BC704780B586B000AF7860A9
:10101C007B68002B01D1012372E27B681B6803F013
:10102C000103002B00F08780924B5B6803F00C03EC
:10103C00042B0CD08F4B5B6803F00C03082B12D1E4
:10104C008C4B5B6803F48033B3F5803F0BD1894B39
:10105C001B6803F40033002B6CD07B685B68002B9F
:10106C0068D101234CE27B685B68B3F5803F06D105
:10107C00804B1B687F4A43F4803313602EE07B68FF
:10108C005B68002B0CD17B4B1B687A4A23F48033B2
:10109C001360784B1B68774A23F4802313601DE0A0
:1010AC007B685B68B3F5A02F0CD1724B1B68714A3F
:1010BC0043F4802313606F4B1B686E4A43F48033F8
:1010CC0013600BE06B4B1B686A4A23F4803313608C
:1010DC00684B1B68674A23F4802313607B685B684A
:1010EC00002B13D0FFF7C0FC386108E0FFF7BCFC05
:1010FC0002463B69D31A642B01D9032300E25D4BF2
:10110C001B6803F40033002BF0D014E0FFF7ACFCA9
:10111C00386108E0FFF7A8FC02463B69D31A642B40
:10112C0001D90323ECE1534B1B6803F40033002B70
:10113C00F0D100E000BF7B681B6803F00203002BBA
:10114C0063D04C4B5B6803F00C03002B0BD0494B6A
:10115C005B6803F00C03082B1CD1464B5B6803F453
:10116C008033002B16D1434B1B6803F00203002B7A
:10117C0005D07B681B69012B01D00123C0E13D4BDD
:10118C001B6823F0F8027B685B69DB003949134369
:10119C000B603AE07B681B69002B20D0364B012298
:1011AC001A60FFF761FC386108E0FFF75DFC02464E
:1011BC003B69D31A022B01D90323A1E12D4B1B68E8
:1011CC0003F00203002BF0D02A4B1B6823F0F8022B
:1011DC007B685B69DB00274913430B6015E0264BEA
:1011EC0000221A60FFF740FC386108E0FFF73CFC76
:1011FC0002463B69D31A022B01D9032380E11D4B14
:10120C001B6803F00203002BF0D17B681B6803F012
:10121C000803002B3AD07B689B69002B19D0174B25
:10122C0001221A60FFF720FC386108E0FFF71CFC74
:10123C0002463B69D31A022B01D9032360E10D4B03
:10124C005B6A03F00203002BF0D0012000F09CFA43
:10125C001CE00A4B00221A60FFF706FC38610FE015
:10126C00FFF702FC02463B69D31A022B08D9032371
:10127C0046E100BF0010024000004242800442429E
:10128C00924B5B6A03F00203002BE9D17B681B686D
:10129C0003F00403002B00F0A6800023FB758B4B9E
:1012AC00DB6903F08053002B0DD1884BDB69874A37
:1012BC0043F08053D361854BDB6903F08053BB60F3
:1012CC00BB680123FB75824B1B6803F48073002BF6
:1012DC0018D17F4B1B687E4A43F480731360FFF771
:1012EC00C3FB386108E0FFF7BFFB02463B69D31A2A
:1012FC00642B01D9032303E1754B1B6803F4807342
:10130C00002BF0D07B68DB68012B06D16F4B1B6A7E
:10131C006E4A43F0010313622DE07B68DB68002BFF
:10132C000CD16A4B1B6A694A23F001031362674BA9
:10133C001B6A664A23F0040313621CE07B68DB68BB
:10134C00052B0CD1614B1B6A604A43F004031362FA
:10135C005E4B1B6A5D4A43F0010313620BE05B4B6F
:10136C001B6A5A4A23F001031362584B1B6A574AF3
:10137C0023F0040313627B68DB68002B15D0FFF7A6
:10138C0073FB38610AE0FFF76FFB02463B69D31A27
:10139C0041F28832934201D90323B1E04B4B1B6AD3
:1013AC0003F00203002BEED014E0FFF75DFB386175
:1013BC000AE0FFF759FB02463B69D31A41F2883227
:1013CC00934201D903239BE0404B1B6A03F00203B9
:1013DC00002BEED1FB7D012B05D13C4BDB693B4A4D
:1013EC0023F08053D3617B68DB69002B00F087808E
:1013FC00364B5B6803F00C03082B61D07B68DB6910
:10140C00022B46D1334B00221A60FFF72DFB3861BB
:10141C0008E0FFF729FB02463B69D31A022B01D9DE
:10142C0003236DE0294B1B6803F00073002BF0D1F4
:10143C007B681B6AB3F5803F08D1244B5B6823F4AF
:10144C0000327B689B68214913434B601F4B5B68E0
:10145C0023F474127B68196A7B685B6A0B431B4923
:10146C0013434B601B4B01221A60FFF7FDFA3861E6
:10147C0008E0FFF7F9FA02463B69D31A022B01D9AF
:10148C0003233DE0114B1B6803F00073002BF0D0DD
:10149C0035E0104B00221A60FFF7E6FA386108E0DD
:1014AC00FFF7E2FA02463B69D31A022B01D9032358
:1014BC0026E0064B1B6803F00073002BF0D11EE0F6
:1014CC007B68DB69012B07D1012319E00010024076
:1014DC0000700040600042420B4B5B68FB60FB6895
:1014EC0003F480327B681B6A9A4206D1FB6803F4D2
:1014FC0070127B685B6A9A4201D0012300E00023E2
:10150C0018461837BD4680BD0010024080B584B027
:10151C0000AF786039607B68002B01D10123D0E0EB
:10152C006A4B1B6803F007033A689A4210D9674B61
:10153C001B6823F0070265493B6813430B60634B40
:10154C001B6803F007033A689A4201D00123B8E004
:10155C007B681B6803F00203002B20D07B681B68A0
:10156C0003F00403002B05D0594B5B68584A43F435
:10157C00E06353607B681B6803F00803002B05D005
:10158C00534B5B68524A43F460535360504B5B6857
:10159C0023F0F0027B689B684D4913434B607B68DA
:1015AC001B6803F00103002B40D07B685B68012BA8
:1015BC0007D1474B1B6803F40033002B15D10123D3
:1015CC007FE07B685B68022B07D1414B1B6803F003
:1015DC000073002B09D1012373E03D4B1B6803F012
:1015EC000203002B01D101236BE0394B5B6823F024
:1015FC0003027B685B68364913434B60FFF734FA90
:10160C00F8600AE0FFF730FA0246FB68D31A41F2A1
:10161C008832934201D9032353E02D4B5B6803F0CE
:10162C000C027B685B689B009A42EBD1274B1B68D2
:10163C0003F007033A689A4210D2244B1B6823F03C
:10164C00070222493B6813430B60204B1B6803F0D5
:10165C0007033A689A4201D0012332E07B681B6889
:10166C0003F00403002B08D0194B5B6823F4E062F1
:10167C007B68DB68164913434B607B681B6803F07F
:10168C000803002B09D0124B5B6823F460527B6873
:10169C001B69DB000E4913434B6000F021F8024636
:1016AC000B4B5B681B0903F00F030A49CB5C22FA56
:1016BC0003F3094A1360094B1B681846FFF792F9AC
:1016CC00002318461037BD4680BD00BF00200240E5
:1016DC0000100240442200080000002004000020FA
:1016EC0080B487B000AF0023FB600023BB600023F5
:1016FC007B6100237B6000233B611E4B5B68FB60BE
:10170C00FB6803F00C03042B02D0082B03D027E05A
:10171C00194B3B6127E0FB689B0C03F00F03174A46
:10172C00D35C7B60FB6803F48033002B10D0114B2F
:10173C005B685B0C03F00103114AD35CBB607B68F4
:10174C000D4A03FB02F2BB68B2FBF3F37B6104E0CE
:10175C007B680C4A02FB03F37B617B693B6102E013
:10176C00054B3B6100BF3B6918461C37BD4680BC2E
:10177C00704700BF0010024000127A00542200088B
:10178C006422000800093D0080B485B000AF786089
:10179C000A4B1B680A4AA2FB03235B0A7A6802FB0A
:1017AC0003F3FB6000BFFB685A1EFA60002BF9D1F3
:1017BC0000BF00BF1437BD4680BC7047000000203E
:1017CC00D34D621080B582B000AF78607B68002B7F
:1017DC0001D1012341E07B6893F83D30DBB2002B53
:1017EC0006D17B68002283F83C207868FFF728F844
:1017FC007B68022283F83D207B681A687B6804337F
:10180C001946104600F056FA7B68012283F84620F0
:10181C007B68012283F83E207B68012283F83F20FD
:10182C007B68012283F840207B68012283F84120E9
:10183C007B68012283F842207B68012283F84320D5
:10184C007B68012283F844207B68012283F84520C1
:10185C007B68012283F83D20002318460837BD46DB
:10186C0080BD000080B485B000AF78607B6893F8D1
:10187C003D30DBB2012B01D0012335E07B68022225
:10188C0083F83D207B681B68DA687B681B6842F034
:10189C000102DA607B681B68164A934209D07B68A8
:1018AC001B68B3F1804F04D07B681B68124A9342CB
:1018BC0011D17B681B689B6803F00703FB60FB6816
:1018CC00062B10D07B681B681A687B681B6842F07B
:1018DC0001021A6007E07B681B681A687B681B684A
:1018EC0042F001021A60002318461437BD4680BC32
:1018FC00704700BF002C01400004004080B584B04C
:10190C0000AF78607B681B68DB68FB607B681B68DA
:10191C001B69BB60BB6803F00203002B20D0FB6883
:10192C0003F00203002B1BD07B681B686FF00202D4
:10193C001A617B6801221A777B681B689B6903F02C
:10194C000303002B03D0786800F098F905E0786861
:10195C0000F08BF9786800F09AF97B6800221A770E
:10196C00BB6803F00403002B20D0FB6803F00403D6
:10197C00002B1BD07B681B686FF004021A617B681C
:10198C0002221A777B681B689B6903F44073002B57
:10199C0003D0786800F072F905E0786800F065F91A
:1019AC00786800F074F97B6800221A77BB6803F042
:1019BC000803002B20D0FB6803F00803002B1BD07E
:1019CC007B681B686FF008021A617B6804221A7727
:1019DC007B681B68DB6903F00303002B03D078687A
:1019EC0000F04CF905E0786800F03FF9786800F0F9
:1019FC004EF97B6800221A77BB6803F01003002BAA
:101A0C0020D0FB6803F01003002B1BD07B681B68F5
:101A1C006FF010021A617B6808221A777B681B68CA
:101A2C00DB6903F44073002B03D0786800F026F9CF
:101A3C0005E0786800F019F9786800F028F97B68FF
:101A4C0000221A77BB6803F00103002B0CD0FB6853
:101A5C0003F00103002B07D07B681B686FF00102B9
:101A6C001A617868FEF75AFEBB6803F08003002BFE
:101A7C000CD0FB6803F08003002B07D07B681B683D
:101A8C006FF080021A61786800F06FFABB6803F09F
:101A9C004003002B0CD0FB6803F04003002B07D055
:101AAC007B681B686FF040021A61786800F0F8F8E8
:101ABC00BB6803F02003002B0CD0FB6803F0200361
:101ACC00002B07D07B681B686FF020021A617868C6
:101ADC0000F042FA00BF1037BD4680BD80B584B01F
:101AEC0000AF786039600023FB737B6893F83C305F
:101AFC00012B01D10223B4E07B68012283F83C2046
:101B0C007B68022283F83D207B681B689B68BB6066
:101B1C00BB6823F07703BB60BB6823F47F43BB60D7
:101B2C007B681B68BA689A603B681B68B3F5005FFA
:101B3C003ED0B3F5005F00F28780B3F5805F00F014
:101B4C008680B3F5805F7FD8702B1AD0702B7BD832
:101B5C00602B50D0602B77D8502B3CD0502B73D8A7
:101B6C00402B58D0402B6FD8302B64D0302B6BD8F7
:101B7C00202B60D0202B67D8002B5CD0102B5AD098
:101B8C0062E07B6818683B6899683B685A683B68F8
:101B9C00DB6800F06AF97B681B689B68BB60BB68FC
:101BAC0043F07703BB607B681B68BA689A604FE0B0
:101BBC007B6818683B6899683B685A683B68DB68C7
:101BCC0000F053F97B681B689A687B681B6842F4C9
:101BDC0080429A603CE07B6818683B6859683B68B7
:101BEC00DB681A4600F0CAF87B681B68502118465F
:101BFC0000F021F92CE07B6818683B6859683B6859
:101C0C00DB681A4600F0E8F87B681B686021184610
:101C1C0000F011F91CE07B6818683B6859683B6858
:101C2C00DB681A4600F0AAF87B681B68402118464E
:101C3C0000F001F90CE07B681A683B681B681946D8
:101C4C00104600F0F8F803E00123FB7300E000BF3E
:101C5C007B68012283F83D207B68002283F83C20BE
:101C6C00FB7B18461037BD4680BD80B483B000AFF7
:101C7C00786000BF0C37BD4680BC704780B483B021
:101C8C0000AF786000BF0C37BD4680BC704780B495
:101C9C0083B000AF786000BF0C37BD4680BC704786
:101CAC0080B483B000AF786000BF0C37BD4680BCF9
:101CBC007047000080B485B000AF786039607B68F5
:101CCC001B68FB607B682B4A934207D07B68B3F19F
:101CDC00804F03D07B68284A934208D1FB6823F0DD
:101CEC007003FB603B685B68FA681343FB607B68BE
:101CFC00204A934207D07B68B3F1804F03D07B68B6
:101D0C001D4A934208D1FB6823F44073FB603B6887
:101D1C00DB68FA681343FB60FB6823F080023B68C6
:101D2C005B691343FB607B68FA681A603B689A68CE
:101D3C007B68DA623B681A687B689A627B680D4A3A
:101D4C00934203D13B681A697B681A637B68012252
:101D5C005A617B681B6903F00103002B05D07B687B
:101D6C001B6923F001027B681A6100BF1437BD4662
:101D7C0080BC7047002C01400004004080B487B048
:101D8C0000AFF860B9607A60FB681B6A7B61FB6826
:101D9C001B6A23F00102FB681A62FB689B693B61BA
:101DAC003B6923F0F0033B617B681B013A691343E9
:101DBC003B617B6923F00A037B617A69BB6813433F
:101DCC007B61FB683A699A61FB687A691A6200BFA9
:101DDC001C37BD4680BC704780B487B000AFF8603C
:101DEC00B9607A60FB681B6A7B61FB681B6A23F035
:101DFC001002FB681A62FB689B693B613B6923F428
:101E0C0070433B617B681B033A6913433B617B69FD
:101E1C0023F0A0037B61BB681B017A6913437B61D0
:101E2C00FB683A699A61FB687A691A6200BF1C37D1
:101E3C00BD4680BC704780B485B000AF7860396017
:101E4C007B689B68FB60FB6823F07003FB603A685F
:101E5C00FB68134343F00703FB607B68FA689A60E6
:101E6C0000BF1437BD4680BC704780B487B000AF4C
:101E7C00F860B9607A603B60FB689B687B617B694A
:101E8C0023F47F437B613B681A027B681A43BB686F
:101E9C0013437A6913437B61FB687A699A6000BFCC
:101EAC001C37BD4680BC704780B485B000AF7860ED
:101EBC0039607B6893F83C30012B01D1022341E05F
:101ECC007B68012283F83C207B68022283F83D204A
:101EDC007B681B685B68FB607B681B689B68BB60EE
:101EEC00FB6823F07003FB603B681B68FA681343C4
:101EFC00FB607B681B68FA685A607B681B68144A35
:101F0C00934209D07B681B68B3F1804F04D07B6887
:101F1C001B68104A93420CD1BB6823F08003BB6052
:101F2C003B685B68BA681343BB607B681B68BA6824
:101F3C009A607B68012283F83D207B68002283F83D
:101F4C003C20002318461437BD4680BC704700BFA8
:101F5C00002C01400004004080B483B000AF7860D6
:101F6C0000BF0C37BD4680BC704780B483B000AF57
:101F7C00786000BF0C37BD4680BC7047024B0146F1
:101F8C00186800F02DB800BF0C000020024B014671
:101F9C00186800F0F5B800BF0C00002070B50F4EAB
:101FAC000C463168054611B900F0AEF83060214698
:101FBC00284600F0A9F8431C03D14FF0FF3420460B
:101FCC0070BDC41C24F00304A042F8D0211A28468A
:101FDC0000F09AF80130F2D1EFE700BF18010020B1
:101FEC002DE9F843CD1C25F0030508350C2D38BF21
:101FFC000C25002D064601DBA94204D90C233360C5
:10200C000020BDE8F883DFF8D48000F069F8D8F838
:10201C0000301C4644BB29463046FFF7BFFF431C2B
:10202C00044658D1D8F800402746002F43D1002C45
:10203C004BD023683946304604EB030900F064F8B2
:10204C00814542D1216830466D1A2946FFF7A6FF1B
:10205C0001303AD023682B442360D8F800305A68FA
:10206C0062BBC8F800700FE02268521B20D40B2A08
:10207C0017D96119A342256018BF5960636808BF5E
:10208C00C8F8001062514B60304600F02FF804F194
:10209C000B00231D20F00700C21A1CBF1B1AA350F3
:1020AC00AFE76268A3420CBFC8F800205A60EBE7A8
:1020BC0023466468AEE73C467F68B6E71A465B6821
:1020CC00A342FBD100235360DEE70C233046336080
:1020DC0000F00CF894E70560D6E700BF1C01002067
:1020EC00014800F04BB800BF5C020020014800F032
:1020FC0046B800BF5C02002003460244934200D164
:10210C00704703F8011BF9E738B50023054D044669
:10211C0008462B60FEF7EEFB431C02D12B6803B183
:10212C00236038BD58020020014B1868704700BF6F
:10213C000C00002070B500260C4D0D4C641BA41037
:10214C00A64209D100F064F800260A4D0A4C641B23
:10215C00A410A64205D170BD55F8043B9847013632
:10216C00EEE755F8043B98470136F2E76822000881
:10217C0068220008682200086C220008704770472B
:10218C0038B50546002940D051F8043C0C1F002BF3
:10219C00B8BFE418FFF7A4FF1C4A136833B9636097
:1021AC0014602846BDE83840FFF7A0BFA34208D909
:1021BC00206821188B4201BF19685B6809182160DF
:1021CC00EDE71A465B680BB1A342FAD911685018B7
:1021DC00A0420BD120680144501883421160E0D119
:1021EC0018685B68084410605360DAE702D90C2366
:1021FC002B60D6E7206821188B4201BF19685B68F9
:10220C000918216063605460CBE738BD1C010020C5
:10221C00F8B500BFF8BC08BC9E467047F8B500BFC7
:08222C00F8BC08BC9E46704797
:10223400FEFDFBF7EFDFBF7F183C66667E7E6666B9
:102244000000000000000000010203040607080962
:1022540002030405060708090A0B0C0D0E0F1010E3
:042264000102000073
:042268003101000838
:04226C000D01000858
:1022700000127A0010000000010000001000002091
:10228000000000002001002088010020F001002053
:10229000000000000000000000000000000000003E
:1022A000000000000000000000000000000000002E
:1022B000000000000000000000000000000000001E
:0C22C00000000000000000000000000012
:04000005080009796D
:00000001FF
